{
  "contractName": "FacturaeSmartContract",
  "abi": [
    {
      "inputs": [],
      "payable": false,
      "stateMutability": "nonpayable",
      "type": "constructor"
    },
    {
      "constant": true,
      "inputs": [],
      "name": "getEj",
      "outputs": [
        {
          "internalType": "string",
          "name": "",
          "type": "string"
        }
      ],
      "payable": false,
      "stateMutability": "view",
      "type": "function"
    },
    {
      "constant": false,
      "inputs": [
        {
          "internalType": "string",
          "name": "ej",
          "type": "string"
        }
      ],
      "name": "setEj",
      "outputs": [],
      "payable": false,
      "stateMutability": "nonpayable",
      "type": "function"
    },
    {
      "constant": false,
      "inputs": [
        {
          "internalType": "uint256",
          "name": "_inblockID",
          "type": "uint256"
        },
        {
          "internalType": "uint256",
          "name": "_uploadingTimestamp",
          "type": "uint256"
        },
        {
          "internalType": "bool",
          "name": "_validInvoice",
          "type": "bool"
        },
        {
          "internalType": "bool",
          "name": "_doubledInvoice",
          "type": "bool"
        },
        {
          "internalType": "bool",
          "name": "_entityDiscountStatus",
          "type": "bool"
        },
        {
          "internalType": "bool",
          "name": "_discountCheckExecuted",
          "type": "bool"
        },
        {
          "internalType": "bool",
          "name": "_existenceCheckExecuted",
          "type": "bool"
        },
        {
          "internalType": "bool",
          "name": "_discountStatus",
          "type": "bool"
        },
        {
          "internalType": "bool",
          "name": "_existenceStatus",
          "type": "bool"
        },
        {
          "internalType": "string",
          "name": "_datos",
          "type": "string"
        }
      ],
      "name": "setFacturas",
      "outputs": [],
      "payable": false,
      "stateMutability": "nonpayable",
      "type": "function"
    },
    {
      "constant": true,
      "inputs": [
        {
          "internalType": "uint256",
          "name": "_inblockID",
          "type": "uint256"
        }
      ],
      "name": "getFacturas",
      "outputs": [
        {
          "internalType": "uint256",
          "name": "_inBlockID",
          "type": "uint256"
        },
        {
          "internalType": "uint256",
          "name": "_uploadingTimestamp",
          "type": "uint256"
        },
        {
          "internalType": "bool",
          "name": "_validInvoice",
          "type": "bool"
        },
        {
          "internalType": "bool",
          "name": "_doubledInvoice",
          "type": "bool"
        },
        {
          "internalType": "bool",
          "name": "_entityDiscountStatus",
          "type": "bool"
        }
      ],
      "payable": false,
      "stateMutability": "view",
      "type": "function"
    },
    {
      "constant": true,
      "inputs": [
        {
          "internalType": "uint256",
          "name": "_inblockID",
          "type": "uint256"
        }
      ],
      "name": "getFacturas2",
      "outputs": [
        {
          "internalType": "bool",
          "name": "_discountCheckExecuted",
          "type": "bool"
        },
        {
          "internalType": "bool",
          "name": "_existenceCheckExecuted",
          "type": "bool"
        },
        {
          "internalType": "bool",
          "name": "_discountStatus",
          "type": "bool"
        },
        {
          "internalType": "bool",
          "name": "_existenceStatus",
          "type": "bool"
        },
        {
          "internalType": "string",
          "name": "_datos",
          "type": "string"
        }
      ],
      "payable": false,
      "stateMutability": "view",
      "type": "function"
    },
    {
      "constant": false,
      "inputs": [
        {
          "internalType": "uint256",
          "name": "_inblockID",
          "type": "uint256"
        },
        {
          "internalType": "bool",
          "name": "_discountStatus",
          "type": "bool"
        }
      ],
      "name": "setDiscount",
      "outputs": [],
      "payable": false,
      "stateMutability": "nonpayable",
      "type": "function"
    },
    {
      "constant": false,
      "inputs": [
        {
          "internalType": "uint256",
          "name": "_inblockID",
          "type": "uint256"
        },
        {
          "internalType": "bool",
          "name": "_existenceStatus",
          "type": "bool"
        }
      ],
      "name": "setCheckExistence",
      "outputs": [],
      "payable": false,
      "stateMutability": "nonpayable",
      "type": "function"
    },
    {
      "constant": false,
      "inputs": [
        {
          "internalType": "uint256",
          "name": "_inblockID",
          "type": "uint256"
        },
        {
          "internalType": "bool",
          "name": "_entityDiscountStatus",
          "type": "bool"
        }
      ],
      "name": "setCheckDiscount",
      "outputs": [],
      "payable": false,
      "stateMutability": "nonpayable",
      "type": "function"
    }
  ],
  "bytecode": "0x60806040526040518060400160405280600581526020017f68656c6c6f0000000000000000000000000000000000000000000000000000008152506002908051906020019061004f929190610062565b5034801561005c57600080fd5b50610107565b828054600181600116156101000203166002900490600052602060002090601f016020900481019282601f106100a357805160ff19168380011785556100d1565b828001600101855582156100d1579182015b828111156100d05782518255916020019190600101906100b5565b5b5090506100de91906100e2565b5090565b61010491905b808211156101005760008160009055506001016100e8565b5090565b90565b610adc806101166000396000f3fe608060405234801561001057600080fd5b50600436106100885760003560e01c8063a3ccca0b1161005b578063a3ccca0b14610287578063acce8c81146102c1578063b908df6d146103e5578063e2f97992146104a057610088565b80633fe28d341461008d57806340bda71c146100f75780638a681bdc146101ca57806394dd616614610204575b600080fd5b6100b9600480360360208110156100a357600080fd5b81019080803590602001909291905050506104da565b604051808681526020018581526020018415151515815260200183151515158152602001821515151581526020019550505050505060405180910390f35b6101236004803603602081101561010d57600080fd5b810190808035906020019092919050505061058a565b604051808615151515815260200185151515158152602001841515151581526020018315151515815260200180602001828103825283818151815260200191508051906020019080838360005b8381101561018b578082015181840152602081019050610170565b50505050905090810190601f1680156101b85780820380516001836020036101000a031916815260200191505b50965050505050505060405180910390f35b610202600480360360408110156101e057600080fd5b81019080803590602001909291908035151590602001909291905050506106e2565b005b61020c610713565b6040518080602001828103825283818151815260200191508051906020019080838360005b8381101561024c578082015181840152602081019050610231565b50505050905090810190601f1680156102795780820380516001836020036101000a031916815260200191505b509250505060405180910390f35b6102bf6004803603604081101561029d57600080fd5b81019080803590602001909291908035151590602001909291905050506107b5565b005b6103e360048036036101408110156102d857600080fd5b8101908080359060200190929190803590602001909291908035151590602001909291908035151590602001909291908035151590602001909291908035151590602001909291908035151590602001909291908035151590602001909291908035151590602001909291908035906020019064010000000081111561035d57600080fd5b82018360208201111561036f57600080fd5b8035906020019184600183028401116401000000008311171561039157600080fd5b91908080601f016020809104026020016040519081016040528093929190818152602001838380828437600081840152601f19601f8201169050808301925050505050505091929192905050506107e6565b005b61049e600480360360208110156103fb57600080fd5b810190808035906020019064010000000081111561041857600080fd5b82018360208201111561042a57600080fd5b8035906020019184600183028401116401000000008311171561044c57600080fd5b91908080601f016020809104026020016040519081016040528093929190818152602001838380828437600081840152601f19601f8201169050808301925050505050505091929192905050506109b7565b005b6104d8600480360360408110156104b657600080fd5b81019080803590602001909291908035151590602001909291905050506109d1565b005b6000806000806000806000878152602001908152602001600020600001546000808881526020019081526020016000206001015460008089815260200190815260200160002060020160009054906101000a900460ff166000808a815260200190815260200160002060020160019054906101000a900460ff166000808b815260200190815260200160002060020160029054906101000a900460ff169450945094509450945091939590929450565b600080600080606060008087815260200190815260200160002060020160039054906101000a900460ff1660008088815260200190815260200160002060020160049054906101000a900460ff1660008089815260200190815260200160002060020160059054906101000a900460ff166000808a815260200190815260200160002060020160069054906101000a900460ff166000808b8152602001908152602001600020600301808054600181600116156101000203166002900480601f0160208091040260200160405190810160405280929190818152602001828054600181600116156101000203166002900480156106c85780601f1061069d576101008083540402835291602001916106c8565b820191906000526020600020905b8154815290600101906020018083116106ab57829003601f168201915b505050505090509450945094509450945091939590929450565b8060008084815260200190815260200160002060020160066101000a81548160ff0219169083151502179055505050565b606060028054600181600116156101000203166002900480601f0160208091040260200160405190810160405280929190818152602001828054600181600116156101000203166002900480156107ab5780601f10610780576101008083540402835291602001916107ab565b820191906000526020600020905b81548152906001019060200180831161078e57829003601f168201915b5050505050905090565b8060008084815260200190815260200160002060020160026101000a81548160ff0219169083151502179055505050565b896000808c815260200190815260200160002060000181905550886000808c815260200190815260200160002060010181905550876000808c815260200190815260200160002060020160006101000a81548160ff021916908315150217905550866000808c815260200190815260200160002060020160016101000a81548160ff021916908315150217905550856000808c815260200190815260200160002060020160026101000a81548160ff021916908315150217905550846000808c815260200190815260200160002060020160036101000a81548160ff021916908315150217905550836000808c815260200190815260200160002060020160046101000a81548160ff021916908315150217905550826000808c815260200190815260200160002060020160056101000a81548160ff021916908315150217905550816000808c815260200190815260200160002060020160066101000a81548160ff021916908315150217905550806000808c8152602001908152602001600020600301908051906020019061097e929190610a02565b5060018a908060018154018082558091505090600182039060005260206000200160009091929091909150555050505050505050505050565b80600290805190602001906109cd929190610a02565b5050565b8060008084815260200190815260200160002060020160056101000a81548160ff0219169083151502179055505050565b828054600181600116156101000203166002900490600052602060002090601f016020900481019282601f10610a4357805160ff1916838001178555610a71565b82800160010185558215610a71579182015b82811115610a70578251825591602001919060010190610a55565b5b509050610a7e9190610a82565b5090565b610aa491905b80821115610aa0576000816000905550600101610a88565b5090565b9056fea265627a7a723158201ba2c169424b65e452fee0eb5e008de549cd06fabbdfc98ee2863a025fdd334664736f6c63430005100032",
  "source": "pragma solidity >=0.5.16;\n\ncontract FacturaeSmartContract {\n\n    struct Step {\n        uint id;\n        uint timestamp;\n        string step;\n    }\n\n    struct Factura {\n        uint inBlockID;\n        uint uploadingTimestamp;\n        bool validInvoice;\n        bool doubledInvoice;\n        bool entityDiscountStatus;\n        bool discountCheckExecuted;\n        bool existenceCheckExecuted;\n        bool discountStatus;\n        bool existenceStatus;\n        string datos;\n        //Step[] steps;\n    }\n    mapping (uint => Factura) facturas;\n    uint[] allFacturas;\n\n    string ejemplo = \"hello\";\n\n    constructor() public{\n\n    }\n    function getEj() public view returns(string memory){\n        return ejemplo;\n    }\n    function setEj(string memory ej) public {\n        ejemplo = ej;\n    }\n   /* function setStep(uint _inblockID, uint _id, uint _timestamp, string memory _step) public {\n        Step memory step;\n        step.id = _id;\n        step.step = _step;\n        step.timestamp = _timestamp;\n        facturas[_inblockID].steps.push(step);\n    }\n    function getSteps(uint _inblockID, uint _index) public view returns (uint _id, uint _timestamp, string memory _step) {\n        return (facturas[_inblockID].steps[_index].id,\n                facturas[_inblockID].steps[_index].timestamp,\n                facturas[_inblockID].steps[_index].step);\n    }*/\n\n    function setFacturas(uint _inblockID, uint _uploadingTimestamp, bool _validInvoice, bool _doubledInvoice, \n    bool _entityDiscountStatus, bool _discountCheckExecuted, bool _existenceCheckExecuted, bool _discountStatus, \n    bool _existenceStatus, string memory _datos) public {\n        facturas[_inblockID].inBlockID = _inblockID;\n        facturas[_inblockID].uploadingTimestamp = _uploadingTimestamp;\n        facturas[_inblockID].validInvoice = _validInvoice;\n        facturas[_inblockID].doubledInvoice = _doubledInvoice;\n        facturas[_inblockID].entityDiscountStatus = _entityDiscountStatus;\n        facturas[_inblockID].discountCheckExecuted = _discountCheckExecuted;\n        facturas[_inblockID].existenceCheckExecuted = _existenceCheckExecuted;\n        facturas[_inblockID].discountStatus = _discountStatus;\n        facturas[_inblockID].existenceStatus = _existenceStatus;\n        facturas[_inblockID].datos = _datos;\n        //facturas[_inblockID].steps = [];\n     \n        allFacturas.push(_inblockID) ;\n    }\n    function getFacturas(uint _inblockID) public view returns(uint _inBlockID, uint _uploadingTimestamp, bool _validInvoice, bool _doubledInvoice, bool _entityDiscountStatus) {\n        return(\n            facturas[_inblockID].inBlockID,\n            facturas[_inblockID].uploadingTimestamp,\n            facturas[_inblockID].validInvoice,\n            facturas[_inblockID].doubledInvoice,\n            facturas[_inblockID].entityDiscountStatus\n        );\n    }\n    function getFacturas2(uint _inblockID) public view returns(bool _discountCheckExecuted, bool _existenceCheckExecuted, bool _discountStatus, bool _existenceStatus, string memory _datos) {\n        return (facturas[_inblockID].discountCheckExecuted,\n                facturas[_inblockID].existenceCheckExecuted,\n                facturas[_inblockID].discountStatus,\n                facturas[_inblockID].existenceStatus,\n                facturas[_inblockID].datos\n        );\n    }\n    \n    function setDiscount(uint _inblockID, bool _discountStatus) public {\n        facturas[_inblockID].discountStatus = _discountStatus;\n    }\n\n    function setCheckExistence(uint _inblockID, bool _existenceStatus) public {\n        facturas[_inblockID].existenceStatus = _existenceStatus;\n    }\n   \n    function setCheckDiscount(uint _inblockID, bool _entityDiscountStatus) public {\n        facturas[_inblockID].entityDiscountStatus = _entityDiscountStatus;\n    }\n}",
  "sourcePath": "/home/jorge/Documentos/besu-net/contract-examples/contracts/FacturaeSmartContract.sol",
  "compiler": {
    "name": "solc",
    "version": "0.5.16+commit.9c3226ce.Emscripten.clang"
  },
  "schemaVersion": "3.1.0",
  "updatedAt": "2020-05-06T16:40:37.849Z",
  "networkType": "ethereum",
  "devdoc": {
    "methods": {}
  },
  "userdoc": {
    "methods": {}
  }
}