{
  "contractName": "FacturaeCaller",
  "abi": [
    {
      "inputs": [
        {
          "internalType": "contract Facturae",
          "name": "addr",
          "type": "address"
        }
      ],
      "payable": false,
      "stateMutability": "nonpayable",
      "type": "constructor"
    },
    {
      "constant": false,
      "inputs": [
        {
          "internalType": "uint256",
          "name": "_inblockID",
          "type": "uint256"
        },
        {
          "internalType": "uint256",
          "name": "_uploadingTimestamp",
          "type": "uint256"
        },
        {
          "internalType": "bool",
          "name": "_validInvoice",
          "type": "bool"
        },
        {
          "internalType": "bool",
          "name": "_doubledInvoice",
          "type": "bool"
        },
        {
          "internalType": "bool",
          "name": "_entityDiscountStatus",
          "type": "bool"
        },
        {
          "internalType": "bool",
          "name": "_discountCheckExecuted",
          "type": "bool"
        },
        {
          "internalType": "bool",
          "name": "_existenceCheckExecuted",
          "type": "bool"
        },
        {
          "internalType": "bool",
          "name": "_discountStatus",
          "type": "bool"
        },
        {
          "internalType": "bool",
          "name": "_existenceStatus",
          "type": "bool"
        },
        {
          "internalType": "string",
          "name": "_datos",
          "type": "string"
        }
      ],
      "name": "setFacturas",
      "outputs": [],
      "payable": false,
      "stateMutability": "nonpayable",
      "type": "function"
    },
    {
      "constant": true,
      "inputs": [
        {
          "internalType": "uint256",
          "name": "_inblockID",
          "type": "uint256"
        }
      ],
      "name": "getFacturas",
      "outputs": [
        {
          "internalType": "uint256",
          "name": "_inBlockID",
          "type": "uint256"
        },
        {
          "internalType": "uint256",
          "name": "_uploadingTimestamp",
          "type": "uint256"
        },
        {
          "internalType": "bool",
          "name": "_validInvoice",
          "type": "bool"
        },
        {
          "internalType": "bool",
          "name": "_doubledInvoice",
          "type": "bool"
        },
        {
          "internalType": "bool",
          "name": "_entityDiscountStatus",
          "type": "bool"
        }
      ],
      "payable": false,
      "stateMutability": "view",
      "type": "function"
    },
    {
      "constant": true,
      "inputs": [
        {
          "internalType": "uint256",
          "name": "_inblockID",
          "type": "uint256"
        }
      ],
      "name": "getFacturas2",
      "outputs": [
        {
          "internalType": "bool",
          "name": "_discountCheckExecuted",
          "type": "bool"
        },
        {
          "internalType": "bool",
          "name": "_existenceCheckExecuted",
          "type": "bool"
        },
        {
          "internalType": "bool",
          "name": "_discountStatus",
          "type": "bool"
        },
        {
          "internalType": "bool",
          "name": "_existenceStatus",
          "type": "bool"
        },
        {
          "internalType": "string",
          "name": "_datos",
          "type": "string"
        }
      ],
      "payable": false,
      "stateMutability": "view",
      "type": "function"
    }
  ],
  "bytecode": "0x608060405234801561001057600080fd5b5060405161061a38038061061a8339818101604052602081101561003357600080fd5b8101908080519060200190929190505050806000806101000a81548173ffffffffffffffffffffffffffffffffffffffff021916908373ffffffffffffffffffffffffffffffffffffffff16021790555050610586806100946000396000f3fe608060405234801561001057600080fd5b50600436106100415760003560e01c80633fe28d341461004657806340bda71c146100b0578063acce8c8114610183575b600080fd5b6100726004803603602081101561005c57600080fd5b81019080803590602001909291905050506102a7565b604051808681526020018581526020018415151515815260200183151515158152602001821515151581526020019550505050505060405180910390f35b6100dc600480360360208110156100c657600080fd5b8101908080359060200190929190505050610397565b604051808615151515815260200185151515158152602001841515151581526020018315151515815260200180602001828103825283818151815260200191508051906020019080838360005b83811015610144578082015181840152602081019050610129565b50505050905090810190601f1680156101715780820380516001836020036101000a031916815260200191505b50965050505050505060405180910390f35b6102a5600480360361014081101561019a57600080fd5b8101908080359060200190929190803590602001909291908035151590602001909291908035151590602001909291908035151590602001909291908035151590602001909291908035151590602001909291908035151590602001909291908035151590602001909291908035906020019064010000000081111561021f57600080fd5b82018360208201111561023157600080fd5b8035906020019184600183028401116401000000008311171561025357600080fd5b91908080601f016020809104026020016040519081016040528093929190818152602001838380828437600081840152601f19601f820116905080830192505050505050509192919290505050610545565b005b60008060008060008060009054906101000a900473ffffffffffffffffffffffffffffffffffffffff1673ffffffffffffffffffffffffffffffffffffffff16633fe28d34876040518263ffffffff1660e01b81526004018082815260200191505060a06040518083038186803b15801561032157600080fd5b505afa158015610335573d6000803e3d6000fd5b505050506040513d60a081101561034b57600080fd5b8101908080519060200190929190805190602001909291908051906020019092919080519060200190929190805190602001909291905050509450945094509450945091939590929450565b60008060008060606000809054906101000a900473ffffffffffffffffffffffffffffffffffffffff1673ffffffffffffffffffffffffffffffffffffffff166340bda71c876040518263ffffffff1660e01b81526004018082815260200191505060006040518083038186803b15801561041157600080fd5b505afa158015610425573d6000803e3d6000fd5b505050506040513d6000823e3d601f19601f8201168201806040525060a081101561044f57600080fd5b81019080805190602001909291908051906020019092919080519060200190929190805190602001909291908051604051939291908464010000000082111561049757600080fd5b838201915060208201858111156104ad57600080fd5b82518660018202830111640100000000821117156104ca57600080fd5b8083526020830192505050908051906020019080838360005b838110156104fe5780820151818401526020810190506104e3565b50505050905090810190601f16801561052b5780820380516001836020036101000a031916815260200191505b506040525050509450945094509450945091939590929450565b5050505050505050505056fea265627a7a723158206bb27ee81ab10a36d3cc84ea875134198a4fef788fb209936ced60820f2c1f4664736f6c63430005100032",
  "source": "pragma solidity >=0.4.21 < 0.7.0;\n\nimport \"./Facturae.sol\";\n\n\ncontract FacturaeCaller {\n\n//   Facturae[] private invoices;\n//   mapping(string => uint) private invoiceByID;\n//   mapping(address => uint) private consults;\n\n  /*address private caixabank;\n  address private santander;\n  address private sabadell;\n  address private bbva;\n  address private bankia;\n\n  address private aef;*/\n\n  //uint consultA = 0;\n  //uint consultB = 0;\n\n  Facturae invoice;\n\n  /**\n* @dev Contract constructor\n*/\n  constructor(/*address _caixabank, address _santander, address _sabadell,\n              address _bbva, address _bankia, */Facturae addr) public\n  {\n    /*caixabank = _caixabank;\n    santander = _santander;\n    sabadell = _sabadell;\n    bbva = _bbva;\n    bankia = _bankia;*/\n    invoice = Facturae(addr);\n  }\n\n  /*********************************************** MODIFIERS **********************************************/\n\n     function setFacturas(uint _inblockID, uint _uploadingTimestamp, bool _validInvoice, bool _doubledInvoice, \n    bool _entityDiscountStatus, bool _discountCheckExecuted, bool _existenceCheckExecuted, bool _discountStatus, \n    bool _existenceStatus, string memory _datos) public {\n       // invoice.setFacturas(_inblockID, _uploadingTimestamp, _validInvoice, _doubledInvoice, _entityDiscountStatus, _existenceStatus, _datos);\n    }\n\n     function getFacturas(uint _inblockID) public view returns(uint _inBlockID, uint _uploadingTimestamp, bool _validInvoice, bool _doubledInvoice, bool _entityDiscountStatus) {\n        return invoice.getFacturas(_inblockID);\n    }\n    function getFacturas2(uint _inblockID) public view returns(bool _discountCheckExecuted, bool _existenceCheckExecuted, bool _discountStatus, bool _existenceStatus, string memory _datos) {\n        return invoice.getFacturas2(_inblockID);\n    }\n   \n}\n",
  "sourcePath": "/home/jorge/Documentos/besu-net/contract-examples/contracts/FacturaeCaller.sol",
  "compiler": {
    "name": "solc",
    "version": "0.5.16+commit.9c3226ce.Emscripten.clang"
  },
  "schemaVersion": "3.1.0",
  "updatedAt": "2020-05-06T16:40:37.185Z",
  "devdoc": {
    "methods": {
      "constructor": {
        "details": "Contract constructor"
      }
    }
  },
  "userdoc": {
    "methods": {
      "setFacturas(uint256,uint256,bool,bool,bool,bool,bool,bool,bool,string)": {
        "notice": "********************************************* MODIFIERS *********************************************"
      }
    }
  }
}