{
  "contractName": "Facturae",
  "abi": [
    {
      "constant": false,
      "inputs": [
        {
          "internalType": "uint256",
          "name": "_inblockID",
          "type": "uint256"
        },
        {
          "internalType": "uint256",
          "name": "_uploadingTimestamp",
          "type": "uint256"
        },
        {
          "internalType": "bool",
          "name": "_validInvoice",
          "type": "bool"
        },
        {
          "internalType": "bool",
          "name": "_doubledInvoice",
          "type": "bool"
        },
        {
          "internalType": "bool",
          "name": "_entityDiscountStatus",
          "type": "bool"
        },
        {
          "internalType": "bool",
          "name": "_discountCheckExecuted",
          "type": "bool"
        },
        {
          "internalType": "bool",
          "name": "_existenceCheckExecuted",
          "type": "bool"
        },
        {
          "internalType": "bool",
          "name": "_discountStatus",
          "type": "bool"
        },
        {
          "internalType": "bool",
          "name": "_existenceStatus",
          "type": "bool"
        },
        {
          "internalType": "string",
          "name": "_datos",
          "type": "string"
        }
      ],
      "name": "setFacturas",
      "outputs": [],
      "payable": false,
      "stateMutability": "nonpayable",
      "type": "function"
    },
    {
      "constant": true,
      "inputs": [
        {
          "internalType": "uint256",
          "name": "_inblockID",
          "type": "uint256"
        }
      ],
      "name": "getFacturas",
      "outputs": [
        {
          "internalType": "uint256",
          "name": "_inBlockID",
          "type": "uint256"
        },
        {
          "internalType": "uint256",
          "name": "_uploadingTimestamp",
          "type": "uint256"
        },
        {
          "internalType": "bool",
          "name": "_validInvoice",
          "type": "bool"
        },
        {
          "internalType": "bool",
          "name": "_doubledInvoice",
          "type": "bool"
        },
        {
          "internalType": "bool",
          "name": "_entityDiscountStatus",
          "type": "bool"
        }
      ],
      "payable": false,
      "stateMutability": "view",
      "type": "function"
    },
    {
      "constant": true,
      "inputs": [
        {
          "internalType": "uint256",
          "name": "_inblockID",
          "type": "uint256"
        }
      ],
      "name": "getFacturas2",
      "outputs": [
        {
          "internalType": "bool",
          "name": "_discountCheckExecuted",
          "type": "bool"
        },
        {
          "internalType": "bool",
          "name": "_existenceCheckExecuted",
          "type": "bool"
        },
        {
          "internalType": "bool",
          "name": "_discountStatus",
          "type": "bool"
        },
        {
          "internalType": "bool",
          "name": "_existenceStatus",
          "type": "bool"
        },
        {
          "internalType": "string",
          "name": "_datos",
          "type": "string"
        }
      ],
      "payable": false,
      "stateMutability": "view",
      "type": "function"
    }
  ],
  "bytecode": "0x608060405234801561001057600080fd5b5061075a806100206000396000f3fe608060405234801561001057600080fd5b50600436106100415760003560e01c80633fe28d341461004657806340bda71c146100b0578063acce8c8114610183575b600080fd5b6100726004803603602081101561005c57600080fd5b81019080803590602001909291905050506102a7565b604051808681526020018581526020018415151515815260200183151515158152602001821515151581526020019550505050505060405180910390f35b6100dc600480360360208110156100c657600080fd5b8101908080359060200190929190505050610357565b604051808615151515815260200185151515158152602001841515151581526020018315151515815260200180602001828103825283818151815260200191508051906020019080838360005b83811015610144578082015181840152602081019050610129565b50505050905090810190601f1680156101715780820380516001836020036101000a031916815260200191505b50965050505050505060405180910390f35b6102a5600480360361014081101561019a57600080fd5b8101908080359060200190929190803590602001909291908035151590602001909291908035151590602001909291908035151590602001909291908035151590602001909291908035151590602001909291908035151590602001909291908035151590602001909291908035906020019064010000000081111561021f57600080fd5b82018360208201111561023157600080fd5b8035906020019184600183028401116401000000008311171561025357600080fd5b91908080601f016020809104026020016040519081016040528093929190818152602001838380828437600081840152601f19601f8201169050808301925050505050505091929192905050506104af565b005b6000806000806000806000878152602001908152602001600020600001546000808881526020019081526020016000206001015460008089815260200190815260200160002060020160009054906101000a900460ff166000808a815260200190815260200160002060020160019054906101000a900460ff166000808b815260200190815260200160002060020160029054906101000a900460ff169450945094509450945091939590929450565b600080600080606060008087815260200190815260200160002060020160039054906101000a900460ff1660008088815260200190815260200160002060020160049054906101000a900460ff1660008089815260200190815260200160002060020160059054906101000a900460ff166000808a815260200190815260200160002060020160069054906101000a900460ff166000808b8152602001908152602001600020600301808054600181600116156101000203166002900480601f0160208091040260200160405190810160405280929190818152602001828054600181600116156101000203166002900480156104955780601f1061046a57610100808354040283529160200191610495565b820191906000526020600020905b81548152906001019060200180831161047857829003601f168201915b505050505090509450945094509450945091939590929450565b896000808c815260200190815260200160002060000181905550886000808c815260200190815260200160002060010181905550876000808c815260200190815260200160002060020160006101000a81548160ff021916908315150217905550866000808c815260200190815260200160002060020160016101000a81548160ff021916908315150217905550856000808c815260200190815260200160002060020160026101000a81548160ff021916908315150217905550846000808c815260200190815260200160002060020160036101000a81548160ff021916908315150217905550836000808c815260200190815260200160002060020160046101000a81548160ff021916908315150217905550826000808c815260200190815260200160002060020160056101000a81548160ff021916908315150217905550816000808c815260200190815260200160002060020160066101000a81548160ff021916908315150217905550806000808c81526020019081526020016000206003019080519060200190610647929190610680565b5060018a908060018154018082558091505090600182039060005260206000200160009091929091909150555050505050505050505050565b828054600181600116156101000203166002900490600052602060002090601f016020900481019282601f106106c157805160ff19168380011785556106ef565b828001600101855582156106ef579182015b828111156106ee5782518255916020019190600101906106d3565b5b5090506106fc9190610700565b5090565b61072291905b8082111561071e576000816000905550600101610706565b5090565b9056fea265627a7a72315820f46749686bd32e39585ed725f191afa4b9842a08929d93512b264d754c97b1d064736f6c63430005100032",
  "source": "pragma solidity >=0.4.21 <0.7.0;\n\ncontract Facturae {\n  \n    mapping(uint=>Factura) facturas;\n    uint[] allFacturas;\n\n    struct Factura {\n        uint inBlockID;\n        uint uploadingTimestamp;\n        bool validInvoice;\n        bool doubledInvoice;\n        bool entityDiscountStatus;\n        bool discountCheckExecuted;\n        bool existenceCheckExecuted;\n        bool discountStatus;\n        bool existenceStatus;\n        string datos;\n        //Step[] steps;\n    }\n\n     function setFacturas(uint _inblockID, uint _uploadingTimestamp, bool _validInvoice, bool _doubledInvoice, \n    bool _entityDiscountStatus, bool _discountCheckExecuted, bool _existenceCheckExecuted, bool _discountStatus, \n    bool _existenceStatus, string memory _datos) public {\n        facturas[_inblockID].inBlockID = _inblockID;\n        facturas[_inblockID].uploadingTimestamp = _uploadingTimestamp;\n        facturas[_inblockID].validInvoice = _validInvoice;\n        facturas[_inblockID].doubledInvoice = _doubledInvoice;\n        facturas[_inblockID].entityDiscountStatus = _entityDiscountStatus;\n        facturas[_inblockID].discountCheckExecuted = _discountCheckExecuted;\n        facturas[_inblockID].existenceCheckExecuted = _existenceCheckExecuted;\n        facturas[_inblockID].discountStatus = _discountStatus;\n        facturas[_inblockID].existenceStatus = _existenceStatus;\n        facturas[_inblockID].datos = _datos;\n        //facturas[_inblockID].steps = [];\n     \n        allFacturas.push(_inblockID) ;\n    }\n\n     function getFacturas(uint _inblockID) public view returns(uint _inBlockID, uint _uploadingTimestamp, bool _validInvoice, bool _doubledInvoice, bool _entityDiscountStatus) {\n        return(\n            facturas[_inblockID].inBlockID,\n            facturas[_inblockID].uploadingTimestamp,\n            facturas[_inblockID].validInvoice,\n            facturas[_inblockID].doubledInvoice,\n            facturas[_inblockID].entityDiscountStatus\n        );\n    }\n    function getFacturas2(uint _inblockID) public view returns(bool _discountCheckExecuted, bool _existenceCheckExecuted, bool _discountStatus, bool _existenceStatus, string memory _datos) {\n        return (facturas[_inblockID].discountCheckExecuted,\n                facturas[_inblockID].existenceCheckExecuted,\n                facturas[_inblockID].discountStatus,\n                facturas[_inblockID].existenceStatus,\n                facturas[_inblockID].datos\n        );\n    }\n\n}\n",
  "sourcePath": "/home/jorge/Documentos/besu-net/contract-examples/contracts/Facturae.sol",
  "compiler": {
    "name": "solc",
    "version": "0.5.16+commit.9c3226ce.Emscripten.clang"
  },
  "schemaVersion": "3.1.0",
  "updatedAt": "2020-05-06T16:34:53.699Z",
  "networkType": "ethereum",
  "devdoc": {
    "methods": {}
  },
  "userdoc": {
    "methods": {}
  }
}