{
  "contractName": "FacturaeSmartContractCaller",
  "abi": [
    {
      "inputs": [
        {
          "internalType": "contract FacturaeSmartContract",
          "name": "add",
          "type": "address"
        }
      ],
      "payable": false,
      "stateMutability": "nonpayable",
      "type": "constructor"
    },
    {
      "constant": true,
      "inputs": [],
      "name": "getEj",
      "outputs": [
        {
          "internalType": "string",
          "name": "",
          "type": "string"
        }
      ],
      "payable": false,
      "stateMutability": "view",
      "type": "function"
    },
    {
      "constant": false,
      "inputs": [
        {
          "internalType": "string",
          "name": "ej",
          "type": "string"
        }
      ],
      "name": "setEj",
      "outputs": [],
      "payable": false,
      "stateMutability": "nonpayable",
      "type": "function"
    },
    {
      "constant": false,
      "inputs": [
        {
          "internalType": "uint256",
          "name": "_inblockID",
          "type": "uint256"
        },
        {
          "internalType": "bool",
          "name": "_validInvoice",
          "type": "bool"
        },
        {
          "internalType": "bool",
          "name": "_doubledInvoice",
          "type": "bool"
        },
        {
          "internalType": "bool",
          "name": "_entityDiscountStatus",
          "type": "bool"
        },
        {
          "internalType": "bool",
          "name": "_discountCheckExecuted",
          "type": "bool"
        },
        {
          "internalType": "bool",
          "name": "_existenceCheckExecuted",
          "type": "bool"
        },
        {
          "internalType": "bool",
          "name": "_discountStatus",
          "type": "bool"
        },
        {
          "internalType": "bool",
          "name": "_existenceStatus",
          "type": "bool"
        },
        {
          "internalType": "string",
          "name": "_datos",
          "type": "string"
        }
      ],
      "name": "setFacturas",
      "outputs": [],
      "payable": false,
      "stateMutability": "nonpayable",
      "type": "function"
    },
    {
      "constant": true,
      "inputs": [
        {
          "internalType": "uint256",
          "name": "_inblockID",
          "type": "uint256"
        }
      ],
      "name": "getFacturas",
      "outputs": [
        {
          "internalType": "uint256",
          "name": "",
          "type": "uint256"
        },
        {
          "internalType": "uint256",
          "name": "",
          "type": "uint256"
        },
        {
          "internalType": "bool",
          "name": "",
          "type": "bool"
        },
        {
          "internalType": "bool",
          "name": "",
          "type": "bool"
        },
        {
          "internalType": "bool",
          "name": "",
          "type": "bool"
        }
      ],
      "payable": false,
      "stateMutability": "view",
      "type": "function"
    },
    {
      "constant": true,
      "inputs": [
        {
          "internalType": "uint256",
          "name": "_inblockID",
          "type": "uint256"
        }
      ],
      "name": "getFacturas2",
      "outputs": [
        {
          "internalType": "bool",
          "name": "",
          "type": "bool"
        },
        {
          "internalType": "bool",
          "name": "",
          "type": "bool"
        },
        {
          "internalType": "bool",
          "name": "",
          "type": "bool"
        },
        {
          "internalType": "bool",
          "name": "",
          "type": "bool"
        },
        {
          "internalType": "string",
          "name": "",
          "type": "string"
        }
      ],
      "payable": false,
      "stateMutability": "view",
      "type": "function"
    },
    {
      "constant": false,
      "inputs": [
        {
          "internalType": "uint256",
          "name": "_inblockID",
          "type": "uint256"
        },
        {
          "internalType": "bool",
          "name": "_discountStatus",
          "type": "bool"
        }
      ],
      "name": "setDiscount",
      "outputs": [],
      "payable": false,
      "stateMutability": "nonpayable",
      "type": "function"
    },
    {
      "constant": false,
      "inputs": [
        {
          "internalType": "uint256",
          "name": "_inblockID",
          "type": "uint256"
        },
        {
          "internalType": "bool",
          "name": "_existenceStatus",
          "type": "bool"
        }
      ],
      "name": "setCheckExistence",
      "outputs": [],
      "payable": false,
      "stateMutability": "nonpayable",
      "type": "function"
    },
    {
      "constant": false,
      "inputs": [
        {
          "internalType": "uint256",
          "name": "_inblockID",
          "type": "uint256"
        },
        {
          "internalType": "bool",
          "name": "_entityDiscountStatus",
          "type": "bool"
        }
      ],
      "name": "setCheckDiscount",
      "outputs": [],
      "payable": false,
      "stateMutability": "nonpayable",
      "type": "function"
    }
  ],
  "bytecode": "0x608060405234801561001057600080fd5b50604051610dc6380380610dc68339818101604052602081101561003357600080fd5b8101908080519060200190929190505050806000806101000a81548173ffffffffffffffffffffffffffffffffffffffff021916908373ffffffffffffffffffffffffffffffffffffffff16021790555050610d32806100946000396000f3fe608060405234801561001057600080fd5b50600436106100885760003560e01c806394dd61661161005b57806394dd61661461031e578063a3ccca0b146103a1578063b908df6d146103db578063e2f979921461049657610088565b80633fe28d341461008d57806340bda71c146100f757806363c22718146101ca5780638a681bdc146102e4575b600080fd5b6100b9600480360360208110156100a357600080fd5b81019080803590602001909291905050506104d0565b604051808681526020018581526020018415151515815260200183151515158152602001821515151581526020019550505050505060405180910390f35b6101236004803603602081101561010d57600080fd5b81019080803590602001909291905050506105c0565b604051808615151515815260200185151515158152602001841515151581526020018315151515815260200180602001828103825283818151815260200191508051906020019080838360005b8381101561018b578082015181840152602081019050610170565b50505050905090810190601f1680156101b85780820380516001836020036101000a031916815260200191505b50965050505050505060405180910390f35b6102e260048036036101208110156101e157600080fd5b81019080803590602001909291908035151590602001909291908035151590602001909291908035151590602001909291908035151590602001909291908035151590602001909291908035151590602001909291908035151590602001909291908035906020019064010000000081111561025c57600080fd5b82018360208201111561026e57600080fd5b8035906020019184600183028401116401000000008311171561029057600080fd5b91908080601f016020809104026020016040519081016040528093929190818152602001838380828437600081840152601f19601f82011690508083019250505050505050919291929050505061076e565b005b61031c600480360360408110156102fa57600080fd5b81019080803590602001909291908035151590602001909291905050506108ce565b005b61032661096a565b6040518080602001828103825283818151815260200191508051906020019080838360005b8381101561036657808201518184015260208101905061034b565b50505050905090810190601f1680156103935780820380516001836020036101000a031916815260200191505b509250505060405180910390f35b6103d9600480360360408110156103b757600080fd5b8101908080359060200190929190803515159060200190929190505050610ad1565b005b610494600480360360208110156103f157600080fd5b810190808035906020019064010000000081111561040e57600080fd5b82018360208201111561042057600080fd5b8035906020019184600183028401116401000000008311171561044257600080fd5b91908080601f016020809104026020016040519081016040528093929190818152602001838380828437600081840152601f19601f820116905080830192505050505050509192919290505050610b6d565b005b6104ce600480360360408110156104ac57600080fd5b8101908080359060200190929190803515159060200190929190505050610c61565b005b60008060008060008060009054906101000a900473ffffffffffffffffffffffffffffffffffffffff1673ffffffffffffffffffffffffffffffffffffffff16633fe28d34876040518263ffffffff1660e01b81526004018082815260200191505060a06040518083038186803b15801561054a57600080fd5b505afa15801561055e573d6000803e3d6000fd5b505050506040513d60a081101561057457600080fd5b8101908080519060200190929190805190602001909291908051906020019092919080519060200190929190805190602001909291905050509450945094509450945091939590929450565b60008060008060606000809054906101000a900473ffffffffffffffffffffffffffffffffffffffff1673ffffffffffffffffffffffffffffffffffffffff166340bda71c876040518263ffffffff1660e01b81526004018082815260200191505060006040518083038186803b15801561063a57600080fd5b505afa15801561064e573d6000803e3d6000fd5b505050506040513d6000823e3d601f19601f8201168201806040525060a081101561067857600080fd5b8101908080519060200190929190805190602001909291908051906020019092919080519060200190929190805160405193929190846401000000008211156106c057600080fd5b838201915060208201858111156106d657600080fd5b82518660018202830111640100000000821117156106f357600080fd5b8083526020830192505050908051906020019080838360005b8381101561072757808201518184015260208101905061070c565b50505050905090810190601f1680156107545780820380516001836020036101000a031916815260200191505b506040525050509450945094509450945091939590929450565b6000809054906101000a900473ffffffffffffffffffffffffffffffffffffffff1673ffffffffffffffffffffffffffffffffffffffff1663acce8c818a428b8b8b8b8b8b8b8b6040518b63ffffffff1660e01b8152600401808b81526020018a81526020018915151515815260200188151515158152602001871515151581526020018615151515815260200185151515158152602001841515151581526020018315151515815260200180602001828103825283818151815260200191508051906020019080838360005b8381101561085657808201518184015260208101905061083b565b50505050905090810190601f1680156108835780820380516001836020036101000a031916815260200191505b509b505050505050505050505050600060405180830381600087803b1580156108ab57600080fd5b505af11580156108bf573d6000803e3d6000fd5b50505050505050505050505050565b6000809054906101000a900473ffffffffffffffffffffffffffffffffffffffff1673ffffffffffffffffffffffffffffffffffffffff16638a681bdc83836040518363ffffffff1660e01b8152600401808381526020018215151515815260200192505050600060405180830381600087803b15801561094e57600080fd5b505af1158015610962573d6000803e3d6000fd5b505050505050565b60606000809054906101000a900473ffffffffffffffffffffffffffffffffffffffff1673ffffffffffffffffffffffffffffffffffffffff166394dd61666040518163ffffffff1660e01b815260040160006040518083038186803b1580156109d357600080fd5b505afa1580156109e7573d6000803e3d6000fd5b505050506040513d6000823e3d601f19601f820116820180604052506020811015610a1157600080fd5b8101908080516040519392919084640100000000821115610a3157600080fd5b83820191506020820185811115610a4757600080fd5b8251866001820283011164010000000082111715610a6457600080fd5b8083526020830192505050908051906020019080838360005b83811015610a98578082015181840152602081019050610a7d565b50505050905090810190601f168015610ac55780820380516001836020036101000a031916815260200191505b50604052505050905090565b6000809054906101000a900473ffffffffffffffffffffffffffffffffffffffff1673ffffffffffffffffffffffffffffffffffffffff1663a3ccca0b83836040518363ffffffff1660e01b8152600401808381526020018215151515815260200192505050600060405180830381600087803b158015610b5157600080fd5b505af1158015610b65573d6000803e3d6000fd5b505050505050565b6000809054906101000a900473ffffffffffffffffffffffffffffffffffffffff1673ffffffffffffffffffffffffffffffffffffffff1663b908df6d826040518263ffffffff1660e01b81526004018080602001828103825283818151815260200191508051906020019080838360005b83811015610bfa578082015181840152602081019050610bdf565b50505050905090810190601f168015610c275780820380516001836020036101000a031916815260200191505b5092505050600060405180830381600087803b158015610c4657600080fd5b505af1158015610c5a573d6000803e3d6000fd5b5050505050565b6000809054906101000a900473ffffffffffffffffffffffffffffffffffffffff1673ffffffffffffffffffffffffffffffffffffffff1663e2f9799283836040518363ffffffff1660e01b8152600401808381526020018215151515815260200192505050600060405180830381600087803b158015610ce157600080fd5b505af1158015610cf5573d6000803e3d6000fd5b50505050505056fea265627a7a723158206f02e467cbcbcedc583b08ca7f42d013081f37e6300d38b365f4af8590f2dc9a64736f6c63430005100032",
  "source": "pragma solidity >=0.5.16;\n\nimport \"./FacturaeSmartContract.sol\";\n\n\ncontract FacturaeSmartContractCaller {\n    FacturaeSmartContract facturae;\n    \n    constructor(FacturaeSmartContract add) public {\n       facturae = FacturaeSmartContract(add);\n    }\n    function getEj() public view returns(string memory){\n        return facturae.getEj();\n    }\n    function setEj(string memory ej) public {\n        facturae.setEj(ej);\n    }\n   /* function setStep(uint _inblockID, uint _id, uint _timestamp, string memory _step) public {\n        facturae.setStep(_inblockID, _id, _timestamp, _step);\n    }\n    function getStep(uint _inblockID, uint _index) public view returns (uint, uint, string memory) {\n       facturae.getSteps(_inblockID, _index);\n    }*/\n    function setFacturas(uint _inblockID, bool _validInvoice, bool _doubledInvoice, \n    bool _entityDiscountStatus, bool _discountCheckExecuted, bool _existenceCheckExecuted, bool _discountStatus,\n     bool _existenceStatus, string memory _datos) public {\n        facturae.setFacturas(_inblockID, now, _validInvoice, _doubledInvoice, \n        _entityDiscountStatus,  _discountCheckExecuted, _existenceCheckExecuted, _discountStatus, \n        _existenceStatus, _datos);\n        }\n    function getFacturas(uint _inblockID) public view returns (uint, uint, bool, bool, bool) {\n        return facturae.getFacturas(_inblockID);\n    }\n     function getFacturas2(uint _inblockID) public view returns (bool, bool, bool, bool, string memory) {\n        return facturae.getFacturas2(_inblockID);\n    }\n    function setDiscount(uint _inblockID, bool _discountStatus) public {\n        facturae.setDiscount(_inblockID, _discountStatus);\n    }\n    function setCheckExistence(uint _inblockID, bool _existenceStatus) public {\n        facturae.setCheckExistence(_inblockID, _existenceStatus);\n    }\n    function setCheckDiscount(uint _inblockID, bool _entityDiscountStatus) public {\n        facturae.setCheckDiscount(_inblockID, _entityDiscountStatus);\n    }\n}",
  "sourcePath": "/home/jorge/Documentos/besu-net/contract-examples/contracts/FuturaeSmartContractCaller.sol",
  "compiler": {
    "name": "solc",
    "version": "0.5.16+commit.9c3226ce.Emscripten.clang"
  },
  "schemaVersion": "3.1.0",
  "updatedAt": "2020-05-06T16:40:37.845Z",
  "networkType": "ethereum",
  "devdoc": {
    "methods": {}
  },
  "userdoc": {
    "methods": {}
  }
}